{
  "address": "0xe7f1725E7734CE288F8367e1Bb143E90bb3F0512",
  "abi": [
    {
      "anonymous": false,
      "inputs": [
        {
          "indexed": false,
          "internalType": "uint256",
          "name": "proposalId",
          "type": "uint256"
        },
        {
          "indexed": false,
          "internalType": "string",
          "name": "description",
          "type": "string"
        }
      ],
      "name": "ProposalSubmitted",
      "type": "event"
    },
    {
      "anonymous": false,
      "inputs": [
        {
          "indexed": false,
          "internalType": "address",
          "name": "voter",
          "type": "address"
        },
        {
          "indexed": false,
          "internalType": "uint256",
          "name": "proposalId",
          "type": "uint256"
        },
        {
          "indexed": false,
          "internalType": "uint8",
          "name": "voteOption",
          "type": "uint8"
        }
      ],
      "name": "VoteCast",
      "type": "event"
    },
    {
      "inputs": [],
      "name": "getProposalCount",
      "outputs": [
        {
          "internalType": "uint256",
          "name": "",
          "type": "uint256"
        }
      ],
      "stateMutability": "view",
      "type": "function"
    },
    {
      "inputs": [],
      "name": "proposalCount",
      "outputs": [
        {
          "internalType": "uint256",
          "name": "",
          "type": "uint256"
        }
      ],
      "stateMutability": "view",
      "type": "function"
    },
    {
      "inputs": [
        {
          "internalType": "uint256",
          "name": "",
          "type": "uint256"
        }
      ],
      "name": "proposals",
      "outputs": [
        {
          "internalType": "string",
          "name": "description",
          "type": "string"
        },
        {
          "internalType": "uint256",
          "name": "yesCount",
          "type": "uint256"
        },
        {
          "internalType": "uint256",
          "name": "noCount",
          "type": "uint256"
        },
        {
          "internalType": "bool",
          "name": "executed",
          "type": "bool"
        }
      ],
      "stateMutability": "view",
      "type": "function"
    },
    {
      "inputs": [
        {
          "internalType": "string",
          "name": "description",
          "type": "string"
        }
      ],
      "name": "submitProposal",
      "outputs": [],
      "stateMutability": "nonpayable",
      "type": "function"
    },
    {
      "inputs": [
        {
          "internalType": "uint256",
          "name": "proposalId",
          "type": "uint256"
        },
        {
          "internalType": "uint8",
          "name": "voteOption",
          "type": "uint8"
        }
      ],
      "name": "vote",
      "outputs": [],
      "stateMutability": "nonpayable",
      "type": "function"
    }
  ],
  "transactionHash": "0x69af7b5829c2cc78be2b079ec4eca78d4cffaae59fc4d9ab6d17d9654e7c8d42",
  "args": [],
  "numDeployments": 1,
  "solcInputHash": "785066bbce63959cec4a28bd9be7f8ab",
  "bytecode": "0x6080604052348015600f57600080fd5b50610ccf8061001f6000396000f3fe608060405234801561001057600080fd5b50600436106100575760003560e01c8063013cf08b1461005c578063373d6d5e1461008f578063943e8216146100ab578063c08cc02d146100c7578063da35c664146100e5575b600080fd5b6100766004803603810190610071919061044a565b610103565b6040516100869493929190610531565b60405180910390f35b6100a960048036038101906100a491906106b2565b6101c8565b005b6100c560048036038101906100c09190610734565b6102a5565b005b6100cf6103f0565b6040516100dc9190610774565b60405180910390f35b6100ed6103fa565b6040516100fa9190610774565b60405180910390f35b6000602052806000526040600020600091509050806000018054610126906107be565b80601f0160208091040260200160405190810160405280929190818152602001828054610152906107be565b801561019f5780601f106101745761010080835404028352916020019161019f565b820191906000526020600020905b81548152906001019060200180831161018257829003601f168201915b5050505050908060010154908060020154908060030160009054906101000a900460ff16905084565b600160008154809291906101db9061081e565b919050555060405180608001604052808281526020016000815260200160008152602001600015158152506000806001548152602001908152602001600020600082015181600001908161022f9190610a12565b50602082015181600101556040820151816002015560608201518160030160006101000a81548160ff0219169083151502179055509050507f076921e45db4958d9ff79453aa2f12e0fa9664505544a9f664f8762b330cf7ca6001548260405161029a929190610ae4565b60405180910390a150565b6000821180156102b757506001548211155b6102f6576040517f08c379a00000000000000000000000000000000000000000000000000000000081526004016102ed90610b60565b60405180910390fd5b60008160ff16148061030b575060018160ff16145b61034a576040517f08c379a000000000000000000000000000000000000000000000000000000000815260040161034190610bf2565b60405180910390fd5b60018160ff160361038557600080838152602001908152602001600020600101600081548092919061037b9061081e565b91905055506103b1565b60008083815260200190815260200160002060020160008154809291906103ab9061081e565b91905055505b7f251f168c3d37dca4f3922f4aa12852da0c3de8ef70710e0cf58eba85805168a23383836040516103e493929190610c62565b60405180910390a15050565b6000600154905090565b60015481565b6000604051905090565b600080fd5b600080fd5b6000819050919050565b61042781610414565b811461043257600080fd5b50565b6000813590506104448161041e565b92915050565b6000602082840312156104605761045f61040a565b5b600061046e84828501610435565b91505092915050565b600081519050919050565b600082825260208201905092915050565b60005b838110156104b1578082015181840152602081019050610496565b60008484015250505050565b6000601f19601f8301169050919050565b60006104d982610477565b6104e38185610482565b93506104f3818560208601610493565b6104fc816104bd565b840191505092915050565b61051081610414565b82525050565b60008115159050919050565b61052b81610516565b82525050565b6000608082019050818103600083015261054b81876104ce565b905061055a6020830186610507565b6105676040830185610507565b6105746060830184610522565b95945050505050565b600080fd5b600080fd5b7f4e487b7100000000000000000000000000000000000000000000000000000000600052604160045260246000fd5b6105bf826104bd565b810181811067ffffffffffffffff821117156105de576105dd610587565b5b80604052505050565b60006105f1610400565b90506105fd82826105b6565b919050565b600067ffffffffffffffff82111561061d5761061c610587565b5b610626826104bd565b9050602081019050919050565b82818337600083830152505050565b600061065561065084610602565b6105e7565b90508281526020810184848401111561067157610670610582565b5b61067c848285610633565b509392505050565b600082601f8301126106995761069861057d565b5b81356106a9848260208601610642565b91505092915050565b6000602082840312156106c8576106c761040a565b5b600082013567ffffffffffffffff8111156106e6576106e561040f565b5b6106f284828501610684565b91505092915050565b600060ff82169050919050565b610711816106fb565b811461071c57600080fd5b50565b60008135905061072e81610708565b92915050565b6000806040838503121561074b5761074a61040a565b5b600061075985828601610435565b925050602061076a8582860161071f565b9150509250929050565b60006020820190506107896000830184610507565b92915050565b7f4e487b7100000000000000000000000000000000000000000000000000000000600052602260045260246000fd5b600060028204905060018216806107d657607f821691505b6020821081036107e9576107e861078f565b5b50919050565b7f4e487b7100000000000000000000000000000000000000000000000000000000600052601160045260246000fd5b600061082982610414565b91507fffffffffffffffffffffffffffffffffffffffffffffffffffffffffffffffff820361085b5761085a6107ef565b5b600182019050919050565b60008190508160005260206000209050919050565b60006020601f8301049050919050565b600082821b905092915050565b6000600883026108c87fffffffffffffffffffffffffffffffffffffffffffffffffffffffffffffffff8261088b565b6108d2868361088b565b95508019841693508086168417925050509392505050565b6000819050919050565b600061090f61090a61090584610414565b6108ea565b610414565b9050919050565b6000819050919050565b610929836108f4565b61093d61093582610916565b848454610898565b825550505050565b600090565b610952610945565b61095d818484610920565b505050565b5b818110156109815761097660008261094a565b600181019050610963565b5050565b601f8211156109c65761099781610866565b6109a08461087b565b810160208510156109af578190505b6109c36109bb8561087b565b830182610962565b50505b505050565b600082821c905092915050565b60006109e9600019846008026109cb565b1980831691505092915050565b6000610a0283836109d8565b9150826002028217905092915050565b610a1b82610477565b67ffffffffffffffff811115610a3457610a33610587565b5b610a3e82546107be565b610a49828285610985565b600060209050601f831160018114610a7c5760008415610a6a578287015190505b610a7485826109f6565b865550610adc565b601f198416610a8a86610866565b60005b82811015610ab257848901518255600182019150602085019450602081019050610a8d565b86831015610acf5784890151610acb601f8916826109d8565b8355505b6001600288020188555050505b505050505050565b6000604082019050610af96000830185610507565b8181036020830152610b0b81846104ce565b90509392505050565b7f496e76616c69642070726f706f73616c20494400000000000000000000000000600082015250565b6000610b4a601383610482565b9150610b5582610b14565b602082019050919050565b60006020820190508181036000830152610b7981610b3d565b9050919050565b7f496e76616c696420766f7465206f7074696f6e2028303a204e6f2c20313a205960008201527f6573290000000000000000000000000000000000000000000000000000000000602082015250565b6000610bdc602383610482565b9150610be782610b80565b604082019050919050565b60006020820190508181036000830152610c0b81610bcf565b9050919050565b600073ffffffffffffffffffffffffffffffffffffffff82169050919050565b6000610c3d82610c12565b9050919050565b610c4d81610c32565b82525050565b610c5c816106fb565b82525050565b6000606082019050610c776000830186610c44565b610c846020830185610507565b610c916040830184610c53565b94935050505056fea26469706673582212203d40260198e6804cc7d4e3f3f02aa16611dd1e518336a1b07b9d40cf9c8d1d3264736f6c634300081c0033",
  "devdoc": {
    "kind": "dev",
    "methods": {},
    "version": 1
  },
  "userdoc": {
    "kind": "user",
    "methods": {},
    "version": 1
  },
  "storageLayout": {
    "storage": [
      {
        "astId": 880,
        "contract": "contracts/Voting.sol:Voting",
        "label": "proposals",
        "offset": 0,
        "slot": "0",
        "type": "t_mapping(t_uint256,t_struct(Proposal)875_storage)"
      },
      {
        "astId": 882,
        "contract": "contracts/Voting.sol:Voting",
        "label": "proposalCount",
        "offset": 0,
        "slot": "1",
        "type": "t_uint256"
      }
    ],
    "types": {
      "t_bool": {
        "encoding": "inplace",
        "label": "bool",
        "numberOfBytes": "1"
      },
      "t_mapping(t_uint256,t_struct(Proposal)875_storage)": {
        "encoding": "mapping",
        "key": "t_uint256",
        "label": "mapping(uint256 => struct Voting.Proposal)",
        "numberOfBytes": "32",
        "value": "t_struct(Proposal)875_storage"
      },
      "t_string_storage": {
        "encoding": "bytes",
        "label": "string",
        "numberOfBytes": "32"
      },
      "t_struct(Proposal)875_storage": {
        "encoding": "inplace",
        "label": "struct Voting.Proposal",
        "members": [
          {
            "astId": 868,
            "contract": "contracts/Voting.sol:Voting",
            "label": "description",
            "offset": 0,
            "slot": "0",
            "type": "t_string_storage"
          },
          {
            "astId": 870,
            "contract": "contracts/Voting.sol:Voting",
            "label": "yesCount",
            "offset": 0,
            "slot": "1",
            "type": "t_uint256"
          },
          {
            "astId": 872,
            "contract": "contracts/Voting.sol:Voting",
            "label": "noCount",
            "offset": 0,
            "slot": "2",
            "type": "t_uint256"
          },
          {
            "astId": 874,
            "contract": "contracts/Voting.sol:Voting",
            "label": "executed",
            "offset": 0,
            "slot": "3",
            "type": "t_bool"
          }
        ],
        "numberOfBytes": "128"
      },
      "t_uint256": {
        "encoding": "inplace",
        "label": "uint256",
        "numberOfBytes": "32"
      }
    }
  }
}