{
  "address": "0xe7f1725E7734CE288F8367e1Bb143E90bb3F0512",
  "abi": [
    {
      "anonymous": false,
      "inputs": [
        {
          "indexed": false,
          "internalType": "uint256",
          "name": "proposalId",
          "type": "uint256"
        },
        {
          "indexed": false,
          "internalType": "string",
          "name": "description",
          "type": "string"
        }
      ],
      "name": "ProposalSubmitted",
      "type": "event"
    },
    {
      "anonymous": false,
      "inputs": [
        {
          "indexed": false,
          "internalType": "address",
          "name": "voter",
          "type": "address"
        },
        {
          "indexed": false,
          "internalType": "uint256",
          "name": "proposalId",
          "type": "uint256"
        },
        {
          "indexed": false,
          "internalType": "uint8",
          "name": "voteOption",
          "type": "uint8"
        }
      ],
      "name": "VoteCast",
      "type": "event"
    },
    {
      "inputs": [],
      "name": "getProposalCount",
      "outputs": [
        {
          "internalType": "uint256",
          "name": "",
          "type": "uint256"
        }
      ],
      "stateMutability": "view",
      "type": "function"
    },
    {
      "inputs": [],
      "name": "proposalCount",
      "outputs": [
        {
          "internalType": "uint256",
          "name": "",
          "type": "uint256"
        }
      ],
      "stateMutability": "view",
      "type": "function"
    },
    {
      "inputs": [
        {
          "internalType": "uint256",
          "name": "",
          "type": "uint256"
        }
      ],
      "name": "proposals",
      "outputs": [
        {
          "internalType": "string",
          "name": "description",
          "type": "string"
        },
        {
          "internalType": "uint256",
          "name": "yesCount",
          "type": "uint256"
        },
        {
          "internalType": "uint256",
          "name": "noCount",
          "type": "uint256"
        },
        {
          "internalType": "bool",
          "name": "executed",
          "type": "bool"
        }
      ],
      "stateMutability": "view",
      "type": "function"
    },
    {
      "inputs": [
        {
          "internalType": "string",
          "name": "description",
          "type": "string"
        }
      ],
      "name": "submitProposal",
      "outputs": [],
      "stateMutability": "nonpayable",
      "type": "function"
    },
    {
      "inputs": [
        {
          "internalType": "uint256",
          "name": "proposalId",
          "type": "uint256"
        },
        {
          "internalType": "uint8",
          "name": "voteOption",
          "type": "uint8"
        }
      ],
      "name": "vote",
      "outputs": [],
      "stateMutability": "nonpayable",
      "type": "function"
    }
  ],
  "transactionHash": "0x337edb815cf8892683f4663290e27d610fc64ca768bc614c203cb88afb2302c6",
  "args": [],
  "numDeployments": 1,
  "solcInputHash": "9c72f00a407ec16d9140e97448e499e3",
  "bytecode": "0x6080604052348015600f57600080fd5b50610cff8061001f6000396000f3fe608060405234801561001057600080fd5b50600436106100575760003560e01c8063013cf08b1461005c578063373d6d5e1461008f578063943e8216146100ab578063c08cc02d146100c7578063da35c664146100e5575b600080fd5b61007660048036038101906100719190610446565b610103565b604051610086949392919061052d565b60405180910390f35b6100a960048036038101906100a491906106ae565b6101c8565b005b6100c560048036038101906100c09190610730565b6102a1565b005b6100cf6103ec565b6040516100dc9190610770565b60405180910390f35b6100ed6103f6565b6040516100fa9190610770565b60405180910390f35b6000602052806000526040600020600091509050806000018054610126906107ba565b80601f0160208091040260200160405190810160405280929190818152602001828054610152906107ba565b801561019f5780601f106101745761010080835404028352916020019161019f565b820191906000526020600020905b81548152906001019060200180831161018257829003601f168201915b5050505050908060010154908060020154908060030160009054906101000a900460ff16905084565b600180546101d6919061081a565b60018190555060405180608001604052808281526020016000815260200160008152602001600015158152506000806001548152602001908152602001600020600082015181600001908161022b91906109fa565b50602082015181600101556040820151816002015560608201518160030160006101000a81548160ff0219169083151502179055509050507f076921e45db4958d9ff79453aa2f12e0fa9664505544a9f664f8762b330cf7ca60015482604051610296929190610acc565b60405180910390a150565b6000821180156102b357506001548211155b6102f2576040517f08c379a00000000000000000000000000000000000000000000000000000000081526004016102e990610b48565b60405180910390fd5b60008160ff161480610307575060018160ff16145b610346576040517f08c379a000000000000000000000000000000000000000000000000000000000815260040161033d90610bda565b60405180910390fd5b60018160ff160361038157600080838152602001908152602001600020600101600081548092919061037790610bfa565b91905055506103ad565b60008083815260200190815260200160002060020160008154809291906103a790610bfa565b91905055505b7f251f168c3d37dca4f3922f4aa12852da0c3de8ef70710e0cf58eba85805168a23383836040516103e093929190610c92565b60405180910390a15050565b6000600154905090565b60015481565b6000604051905090565b600080fd5b600080fd5b6000819050919050565b61042381610410565b811461042e57600080fd5b50565b6000813590506104408161041a565b92915050565b60006020828403121561045c5761045b610406565b5b600061046a84828501610431565b91505092915050565b600081519050919050565b600082825260208201905092915050565b60005b838110156104ad578082015181840152602081019050610492565b60008484015250505050565b6000601f19601f8301169050919050565b60006104d582610473565b6104df818561047e565b93506104ef81856020860161048f565b6104f8816104b9565b840191505092915050565b61050c81610410565b82525050565b60008115159050919050565b61052781610512565b82525050565b6000608082019050818103600083015261054781876104ca565b90506105566020830186610503565b6105636040830185610503565b610570606083018461051e565b95945050505050565b600080fd5b600080fd5b7f4e487b7100000000000000000000000000000000000000000000000000000000600052604160045260246000fd5b6105bb826104b9565b810181811067ffffffffffffffff821117156105da576105d9610583565b5b80604052505050565b60006105ed6103fc565b90506105f982826105b2565b919050565b600067ffffffffffffffff82111561061957610618610583565b5b610622826104b9565b9050602081019050919050565b82818337600083830152505050565b600061065161064c846105fe565b6105e3565b90508281526020810184848401111561066d5761066c61057e565b5b61067884828561062f565b509392505050565b600082601f83011261069557610694610579565b5b81356106a584826020860161063e565b91505092915050565b6000602082840312156106c4576106c3610406565b5b600082013567ffffffffffffffff8111156106e2576106e161040b565b5b6106ee84828501610680565b91505092915050565b600060ff82169050919050565b61070d816106f7565b811461071857600080fd5b50565b60008135905061072a81610704565b92915050565b6000806040838503121561074757610746610406565b5b600061075585828601610431565b92505060206107668582860161071b565b9150509250929050565b60006020820190506107856000830184610503565b92915050565b7f4e487b7100000000000000000000000000000000000000000000000000000000600052602260045260246000fd5b600060028204905060018216806107d257607f821691505b6020821081036107e5576107e461078b565b5b50919050565b7f4e487b7100000000000000000000000000000000000000000000000000000000600052601160045260246000fd5b600061082582610410565b915061083083610410565b9250828201905080821115610848576108476107eb565b5b92915050565b60008190508160005260206000209050919050565b60006020601f8301049050919050565b600082821b905092915050565b6000600883026108b07fffffffffffffffffffffffffffffffffffffffffffffffffffffffffffffffff82610873565b6108ba8683610873565b95508019841693508086168417925050509392505050565b6000819050919050565b60006108f76108f26108ed84610410565b6108d2565b610410565b9050919050565b6000819050919050565b610911836108dc565b61092561091d826108fe565b848454610880565b825550505050565b600090565b61093a61092d565b610945818484610908565b505050565b5b818110156109695761095e600082610932565b60018101905061094b565b5050565b601f8211156109ae5761097f8161084e565b61098884610863565b81016020851015610997578190505b6109ab6109a385610863565b83018261094a565b50505b505050565b600082821c905092915050565b60006109d1600019846008026109b3565b1980831691505092915050565b60006109ea83836109c0565b9150826002028217905092915050565b610a0382610473565b67ffffffffffffffff811115610a1c57610a1b610583565b5b610a2682546107ba565b610a3182828561096d565b600060209050601f831160018114610a645760008415610a52578287015190505b610a5c85826109de565b865550610ac4565b601f198416610a728661084e565b60005b82811015610a9a57848901518255600182019150602085019450602081019050610a75565b86831015610ab75784890151610ab3601f8916826109c0565b8355505b6001600288020188555050505b505050505050565b6000604082019050610ae16000830185610503565b8181036020830152610af381846104ca565b90509392505050565b7f496e76616c69642070726f706f73616c20494400000000000000000000000000600082015250565b6000610b3260138361047e565b9150610b3d82610afc565b602082019050919050565b60006020820190508181036000830152610b6181610b25565b9050919050565b7f496e76616c696420766f7465206f7074696f6e2028303a204e6f2c20313a205960008201527f6573290000000000000000000000000000000000000000000000000000000000602082015250565b6000610bc460238361047e565b9150610bcf82610b68565b604082019050919050565b60006020820190508181036000830152610bf381610bb7565b9050919050565b6000610c0582610410565b91507fffffffffffffffffffffffffffffffffffffffffffffffffffffffffffffffff8203610c3757610c366107eb565b5b600182019050919050565b600073ffffffffffffffffffffffffffffffffffffffff82169050919050565b6000610c6d82610c42565b9050919050565b610c7d81610c62565b82525050565b610c8c816106f7565b82525050565b6000606082019050610ca76000830186610c74565b610cb46020830185610503565b610cc16040830184610c83565b94935050505056fea264697066735822122041d4d89b1f5f89ca21d347eb14d4c0da2ba0eb1199f02171fb2c01b19f6354b964736f6c634300081c0033",
  "devdoc": {
    "kind": "dev",
    "methods": {},
    "version": 1
  },
  "userdoc": {
    "kind": "user",
    "methods": {},
    "version": 1
  },
  "storageLayout": {
    "storage": [
      {
        "astId": 15,
        "contract": "contracts/Voting.sol:Voting",
        "label": "proposals",
        "offset": 0,
        "slot": "0",
        "type": "t_mapping(t_uint256,t_struct(Proposal)10_storage)"
      },
      {
        "astId": 17,
        "contract": "contracts/Voting.sol:Voting",
        "label": "proposalCount",
        "offset": 0,
        "slot": "1",
        "type": "t_uint256"
      }
    ],
    "types": {
      "t_bool": {
        "encoding": "inplace",
        "label": "bool",
        "numberOfBytes": "1"
      },
      "t_mapping(t_uint256,t_struct(Proposal)10_storage)": {
        "encoding": "mapping",
        "key": "t_uint256",
        "label": "mapping(uint256 => struct Voting.Proposal)",
        "numberOfBytes": "32",
        "value": "t_struct(Proposal)10_storage"
      },
      "t_string_storage": {
        "encoding": "bytes",
        "label": "string",
        "numberOfBytes": "32"
      },
      "t_struct(Proposal)10_storage": {
        "encoding": "inplace",
        "label": "struct Voting.Proposal",
        "members": [
          {
            "astId": 3,
            "contract": "contracts/Voting.sol:Voting",
            "label": "description",
            "offset": 0,
            "slot": "0",
            "type": "t_string_storage"
          },
          {
            "astId": 5,
            "contract": "contracts/Voting.sol:Voting",
            "label": "yesCount",
            "offset": 0,
            "slot": "1",
            "type": "t_uint256"
          },
          {
            "astId": 7,
            "contract": "contracts/Voting.sol:Voting",
            "label": "noCount",
            "offset": 0,
            "slot": "2",
            "type": "t_uint256"
          },
          {
            "astId": 9,
            "contract": "contracts/Voting.sol:Voting",
            "label": "executed",
            "offset": 0,
            "slot": "3",
            "type": "t_bool"
          }
        ],
        "numberOfBytes": "128"
      },
      "t_uint256": {
        "encoding": "inplace",
        "label": "uint256",
        "numberOfBytes": "32"
      }
    }
  }
}